:04000000F9EF16F00E
:1010000000010000000A00000064000000E8030086
:101010000010270000A086010040420F0080969833
:101020000000E1F50500CA9A3B00803F0020410026
:10103000C842007A44401C4650C34724744997185C
:101040004BBCBE4C6B6E4E03155079AD60F34971CD
:1010500000803FCDCC3DD7233C12833AB7D138C670
:101060002737388635C0D633CC2B32708930E7DB52
:101070002EE53C1E42A20D4D6F68616D6D616420CE
:101080004E616A6A6172202C204D6F68616D6D61DE
:101090006420416E77617220004D6F68616D6D61F3
:1010A00064204E616A6A6172202C204D6F68616D08
:1010B0006D616420416E7761720056313D25342E9A
:1010C0003266562000543D25342E32660000440E10
:1010D000506E000E516E8AEF0CF0250E6518D8B4D4
:1010E00008D040C0D9FF41C0DAFF65C0DFFF88EFFC
:1010F0000CF0000E596E000E586E000E576E000E6A
:10110000566E42C0F6FF43C0F7FF0800F550DFEC13
:1011100017F0D8A032D0000E596E000E586E58C08D
:101120000FF059C010F0000E126E0A0E116E72EC24
:1011300017F00FC058F010C059F0D00E476EFF0ED8
:10114000486E42C0F6FF43C0F7FF0800F550496EF5
:101150004A6A4750492648504A22495058264A5020
:101160005922424A432A42C0F6FF43C0F7FF080013
:10117000F550DFEC17F0D8B0D2D742C0F6FF43C02D
:10118000F7FF0800F5502E0AD8A42ED0578C424AFB
:10119000432A000E646E000E636E1BD063C00FF016
:1011A00064C010F0000E126E0A0E116E72EC17F091
:1011B00042C0F6FF43C0F7FF0800F5500F26000EAF
:1011C0001022D00E0F24636EFF0E1020646E424A70
:1011D000432A42C0F6FF43C0F7FF0800F550DFEC9A
:1011E00017F0D8A009D0DAD7000E646E000E636E37
:1011F000578802D0578411D042C0F6FF43C0F7FF92
:10120000424A432A0800F5CF65F06550000AD8B479
:101210008ED3660AD8B4EED77DD3070E5714D8B450
:10122000EED257A804D0000E646E060E636E50C056
:10123000D9FF51C0DAFFDECF60F0DECF61F0DDCF45
:1012400062F0030E5026000E512262AE10D060C034
:1012500001F061C002F062C003F0BCEC17F001C005
:1012600060F002C061F003C062F0030E5612000E7F
:101270005F6E000E5E6E605061106210D8B483D055
:10128000820E476EFF0E486E60C049F061C04AF0A2
:1012900062C04BF063C04CF0100E05D0D8904C32B9
:1012A0004B324A324932E82EF9D7495047245E6E14
:1012B000000E48205F6E5E06D8A05F065EC00FF08D
:1012C0005FC010F0000E126E030E116E72EC17F07C
:1012D0000FC05EF010C05FF05EC007F05FC008F0A6
:1012E000000E0A6E0A0E096E97EC14F007C05EF04D
:1012F00008C05FF05FAE03D05E06D8A05F065E5008
:1013000000089EEC0CF024C05AF025C05BF026C00B
:101310005CF05AC015F05BC016F05CC017F060C0FE
:1013200018F061C019F062C01AF0CEEC11F015C0CF
:101330005AF016C05BF017C05CF05AC001F05BC0F9
:1013400002F05CC003F0000E046E800E056E3F0ECE
:10135000066E4FEC14F0D8B004D05E06D8A05F063D
:1013600012D05AC001F05BC002F05CC003F0000E66
:10137000046E200E056E410E066E4FEC14F0D8A0E0
:1013800002D05E4A5F2A64BE06D064501BE10D0E97
:10139000635CD8B017D060C02EF061C02FF062C07F
:1013A00030F06350A2EC0EF024C031F025C032F0D2
:1013B00026C033F0CBEC0FF02EC060F02FC061F0F0
:1013C00030C062F05FBE06D05F501EE10A0E5E5C68
:1013D000D8B01AD0605061106210D8B451D060C03B
:1013E0002BF061C02CF062C02DF048EC12F02B50B5
:1013F0002C102D102E10D8B45FBE42D05F5004E1E7
:10140000020E5E5CD8A03CD05AC001F05BC002F076
:101410005CC003F0700E046E890E056E400E066E01
:101420004FEC14F0D8B002D0F70E01D0F80E5E26C3
:10143000FF0E5F225E509EEC0CF024C05AF025C0D7
:101440005BF026C05CF060C001F061C002F062C0D9
:1014500003F05AC004F05BC005F05CC006F0A1ECDC
:1014600010F001C052F002C053F003C054F004C0A9
:1014700055F0000E606E000E616E000E626E32D08E
:1014800060C02BF061C02CF062C02DF048EC12F06F
:101490002BC052F02CC053F02DC054F02EC055F08C
:1014A00060C03AF061C03BF062C03CF052C009F04D
:1014B00053C00AF054C00BF055C00CF0B6EC15F058
:1014C00009C03DF00AC03EF00BC03FF07FEC16F0C3
:1014D0003AC060F03BC061F03CC062F0000E5F6E4D
:1014E000000E5E6E010E656E0A0E6518D8B418D037
:1014F0006550040D010EF324F66E100EF420F76E05
:101500000900F550525C0900F55053580900F55098
:1015100054580900F5505558D8A002D0652AE4D790
:1015200065C047F0486A47BE480663504726645086
:1015300048225E5047265F5048224750585E485028
:10154000595A63506410D8B403D05806D8A059062D
:10155000030E5614476E000E5714486E475048103D
:10156000D8B40CD008D040C0D9FF41C0DAFF200E5B
:10157000DF6E404A412A5806D8A0590659BE05D008
:101580005950F1E15804D8B0EED7030E5614476E07
:10159000000E5714486E47504810D8B44FD040C082
:1015A000D9FF41C0DAFF2D0E46D052C001F053C022
:1015B00002F054C003F055C004F06550040D010E54
:1015C000F324F66E100EF420F76E0900F5CF05F047
:1015D0000900F5CF06F00900F5CF07F00A00F5CFB6
:1015E00008F0D9EC14F001C05AF002C05BF003C05F
:1015F0005CF004C05DF05AC001F05BC002F05CC05A
:1016000003F05DC004F00A0E056E000E066E000EBB
:10161000076E000E086E52EC15F001C05AF002C0C1
:101620005BF003C05CF004C05DF05A50300F40C066
:10163000D9FF41C0DAFFDF6E404A412A65066528BE
:10164000D8B40CD0B2D740C0D9FF41C0DAFF300EB9
:10165000DF6E404A412A5E06D8A05F065FBE05D015
:101660005F50F1E15E04D8B0EED764BE09D064509B
:1016700004E1090E635CD8A003D0080E656E02D0A9
:1016800063C065F06550635E000E65BEFF0E645A70
:101690006550D8B408D040C0D9FF41C0DAFF2E0E43
:1016A000DF6E404A412A65509EEC0CF024C04DF09C
:1016B00025C04EF026C04FF060C018F061C019F090
:1016C00062C01AF04DC015F04EC016F04FC017F0B2
:1016D000CEEC11F015C02BF016C02CF017C02DF079
:1016E00048EC12F02BC052F02CC053F02DC054F037
:1016F0002EC055F06FD052C001F053C002F054C05C
:1017000003F055C004F06550040D010EF324F66E8D
:10171000100EF420F76E0900F5CF05F00900F5CFA3
:1017200006F00900F5CF07F00A00F5CF08F0D9EC74
:1017300014F001C05AF002C05BF003C05CF004C0BA
:101740005DF05AC001F05BC002F05CC003F05DC008
:1017500004F00A0E056E000E066E000E076E000EF7
:10176000086E52EC15F001C05AF002C05BF003C0E5
:101770005CF004C05DF05A50300F40C0D9FF41C04A
:10178000DAFFDF6E404A412A52C001F053C002F036
:1017900054C003F055C004F06550040D010EF3244D
:1017A000F66E100EF420F76E0900F5CF05F0090073
:1017B000F5CF06F00900F5CF07F00A00F5CF08F0E5
:1017C00052EC15F001C052F002C053F003C054F0C7
:1017D00004C055F065066528D8B40CD08CD740C03D
:1017E000D9FF41C0DAFF300EDF6E404A412A63065E
:1017F000D8A0640663506410D8B48CD0F0D763507E
:101800006410D8A408D05250531054105510D8A4C6
:1018100002D0634A642A800E65BE7F0E476E635015
:10182000655C6450800A4758D8B003D063C065F047
:1018300010D06450800A476E6550635C800E65BEB0
:101840007F0E4758D8B005D06550636E646A63BE9A
:10185000640658505910D8B40DD0030E5614476E74
:10186000000E5714486E47504810D8B403D058069D
:10187000D8A0590657AC13D05850635C6450800A06
:10188000476E5950800A4758D8B005D06350585E0B
:101890006450595A04D0000E596E000E586E800ED6
:1018A00065BE7F0E476E5850655C5950800A475898
:1018B000D8B007D06550585E000E65BEFF0E595A6D
:1018C00004D0000E596E000E586E58505910D8B4FE
:1018D0000FD040C0D9FF41C0DAFF200EDF6E404A72
:1018E000412A5806D8A0590658505910D8A4F1D703
:1018F000030E5614476E000E5714486E475048109A
:10190000D8B408D040C0D9FF41C0DAFF2D0EDF6E39
:10191000404A412A42C0F6FF43C0F7FF424A432AE9
:101920000800F5CF65F06550D8A46DEF08F040C011
:10193000D9FF41C0DAFF000EDF6E12002A6E2AAE18
:1019400001D12A6C2A50800A120FD8A091D0000E23
:10195000126E030E116E000E0A6E0A0E096E000E54
:10196000046E640E036E2A50016E026A01BE020606
:101970001AEC15F001C007F002C008F097EC14F063
:10198000090E07240F6E000E0820106E72EC17F07F
:10199000500E0F24F66E100E1020F76E0900F5CFD2
:1019A00018F00900F5CF19F00A00F5CF1AF0000E73
:1019B0000A6E640E096E2A50076E086A07BE080692
:1019C00097EC14F0120E07240F6E000E0820106E14
:1019D000000E126E030E116E72EC17F0500E0F24F3
:1019E000F66E100E1020F76E0900F5CF15F0090005
:1019F000F5CF16F00A00F5CF17F0CEEC11F015C0B8
:101A000027F016C028F017C029F027C015F028C00D
:101A100016F029C017F0000E126E030E116E000EA4
:101A2000046E0A0E036E2A50016E026A01BE02069F
:101A30001AEC15F001C00FF002C010F072EC17F0B4
:101A4000500E0F24F66E100E1020F76E0900F5CF21
:101A500018F00900F5CF19F00A00F5CF1AF0CEEC16
:101A600011F015C024F016C025F017C026F01200A2
:101A70002A50800A750FD8A053D0000E0A6E0A0EA5
:101A8000096E2A50076E086A07BE080697EC14F024
:101A9000090E07240F6E000E0820106E000E126E45
:101AA000030E116E72EC17F0500E0F24F66E100E2E
:101AB0001020F76E0900F5CF15F00900F5CF16F0EC
:101AC0000A00F5CF17F0000E126E030E116E000E15
:101AD000046E0A0E036E2A50016E026A01BE0206EF
:101AE0001AEC15F001C00FF002C010F072EC17F004
:101AF000500E0F24F66E100E1020F76E0900F5CF71
:101B000018F00900F5CF19F00A00F5CF1AF0CEEC65
:101B100011F015C024F016C025F017C026F01200F1
:101B20002A50030D500EF324F66E100EF420F76EBB
:101B30000900F5CF24F00900F5CF25F00A00F5CF14
:101B400026F012002A50800A120FD8A091D0000E61
:101B5000126E030E116E000E0A6E0A0E096E000E52
:101B6000046E640E036E2A50016E026A01BE020604
:101B70001AEC15F001C007F002C008F097EC14F061
:101B8000090E07240F6E000E0820106E72EC17F07D
:101B9000290E0F24F66E100E1020F76E0900F5CFF7
:101BA00018F00900F5CF19F00A00F5CF1AF0000E71
:101BB0000A6E640E096E2A50076E086A07BE080690
:101BC00097EC14F0120E07240F6E000E0820106E12
:101BD000000E126E030E116E72EC17F0290E0F2418
:101BE000F66E100E1020F76E0900F5CF15F0090003
:101BF000F5CF16F00A00F5CF17F0CEEC11F015C0B6
:101C000027F016C028F017C029F027C015F028C00B
:101C100016F029C017F0000E126E030E116E000EA2
:101C2000046E0A0E036E2A50016E026A01BE02069D
:101C30001AEC15F001C00FF002C010F072EC17F0B2
:101C4000290E0F24F66E100E1020F76E0900F5CF46
:101C500018F00900F5CF19F00A00F5CF1AF0CEEC14
:101C600011F015C024F016C025F017C026F01200A0
:101C70002A50800A750FD8A053D0000E0A6E0A0EA3
:101C8000096E2A50076E086A07BE080697EC14F022
:101C9000090E07240F6E000E0820106E000E126E43
:101CA000030E116E72EC17F0290E0F24F66E100E53
:101CB0001020F76E0900F5CF15F00900F5CF16F0EA
:101CC0000A00F5CF17F0000E126E030E116E000E13
:101CD000046E0A0E036E2A50016E026A01BE0206ED
:101CE0001AEC15F001C00FF002C010F072EC17F002
:101CF000290E0F24F66E100E1020F76E0900F5CF96
:101D000018F00900F5CF19F00A00F5CF1AF0CEEC63
:101D100011F015C024F016C025F017C026F01200EF
:101D20002A50030D290EF324F66E100EF420F76EE0
:101D30000900F5CF24F00900F5CF25F00A00F5CF12
:101D400026F012002D6E6D0E2D649FD0000E126EC7
:101D5000030E116E000E0A6E0A0E096E000E046E5E
:101D6000640E036E2DC001F0026A1AEC15F001C07A
:101D700007F002C008F097EC14F0090E07240F6E6C
:101D8000000E0820106E72EC17F0500E0F24F66E45
:101D9000100E1020F76E0900F5CF18F00900F5CFEE
:101DA00019F00A00F5CF1AF0000E0A6E640E096EE3
:101DB0002DC007F0086A97EC14F0120E07240F6E7E
:101DC000000E0820106E000E126E030E116E72ECE3
:101DD00017F0500E0F24F66E100E1020F76E09004B
:101DE000F5CF15F00900F5CF16F00A00F5CF17F082
:101DF000CEEC11F015C02AF016C02BF017C02CF055
:101E0000000E126E030E116E000E046E0A0E036EAB
:101E10002DC001F0026A1AEC15F001C00FF002C0EB
:101E200010F072EC17F0500E0F24F66E100E10200A
:101E3000F76E0900F5CF18F00900F5CF19F00A0088
:101E4000F5CF1AF02AC015F02BC016F02CC017F0F1
:101E5000CEEC11F015C027F016C028F017C029F0FD
:101E600027C015F028C016F029C017F0000E186E14
:101E7000000E196E3F0E1A6ECEEC11F015C024F054
:101E800016C025F017C026F012000A0E2D6463D08C
:101E9000000E126E030E116E000E046E0A0E036E1B
:101EA0002DC001F0026A1AEC15F001C00FF002C05B
:101EB00010F072EC17F0500E0F24F66E100E10207A
:101EC000F76E0900F5CF18F00900F5CF19F00A00F8
:101ED000F5CF1AF0000E0A6E0A0E096E2DC007F03B
:101EE000086A97EC14F0090E07240F6E000E082004
:101EF000106E000E126E030E116E72EC17F0500E83
:101F00000F24F66E100E1020F76E0900F5CF15F0B5
:101F10000900F5CF16F00A00F5CF17F0CEEC11F05E
:101F200015C02AF016C02BF017C02CF02AC015F0EF
:101F30002BC016F02CC017F0000E186E000E196E94
:101F40003F0E1A6ECEEC11F015C024F016C025F02D
:101F500017C026F012002D50030D500EF324F66E1C
:101F6000100EF420F76E0900F5CF15F00900F5CF3B
:101F700016F00A00F5CF17F0000E186E000E196E5D
:101F80003F0E1A6ECEEC11F015C024F016C025F0ED
:101F900017C026F0120030C034F0356A366A2F348C
:101FA000343601E335803450396E33C034F0356A4D
:101FB000366A3234343601E335803450386E395065
:101FC000D8B40BD03850395CD8B00ED03950000896
:101FD0003824346E180E346407D031C02EF032C06D
:101FE0002FF033C030F012003850D8B40BD0395035
:101FF000385CD8B00ED0385000083924346E180E32
:10200000346407D02EC02EF02FC02FF030C030F037
:102010001200060E376E30BE378E33BE378C2F8ED1
:10202000FF0E2E16FF0E2F16000E3016328EFF0EEC
:102030003116FF0E3216000E33163850395CD8B008
:102040001BD0D890313632363336380639503818EE
:10205000D8B40DD0370637C034F0070E3416D8B4D4
:1020600006D0EFD7D89030322F322E32392A38505E
:102070003918D8B41FD0F6D73950385CD8B01AD038
:10208000D8902E362F363036390639503818D8B415
:102090000DD0370637C034F0070E3416D8B406D04A
:1020A000EFD7D890333232323132382A385039189B
:1020B000D8A4F7D737AE0CD0FF0E2E1AFF0E2F1A6A
:1020C000FF0E301A010E2E26000E2F22000E302297
:1020D00037AC0CD0FF0E311AFF0E321AFF0E331A36
:1020E000010E3126000E3222000E3322000E376E12
:1020F0002E5031262F5032223050332233AE0ED0A4
:10210000FF0E311AFF0E321AFF0E331A010E31265E
:10211000000E3222000E3322010E376E31C001F064
:1021200032C002F033C003F039C004F037C005F00C
:10213000F8EC13F001C02EF002C02FF003C030F015
:10214000120003C007F0086A096A0234073601E387
:10215000088007500F6E0F50D8A409D0000E016EF2
:10216000000E026E000E036E000E046E120006C01A
:1021700007F0086A096A0534073601E3088007504A
:102180000E6E0E50D8A409D0000E016E000E026E25
:10219000000E036E000E046E1200028EFF0E01167A
:1021A000FF0E0216000E0316058EFF0E0416FF0E1C
:1021B0000516000E0616000E0A6E000E0B6E000EBF
:1021C0000C6E000E0D6E7F0E0F5E0E50980F0F5EA0
:1021D000180E0E6ED8900A360B360C360D3604509B
:1021E000015C0550025806500358D8A007D004508F
:1021F000015E0550025A0650035A0A80D8900136F3
:10220000023603360E2EE6D70FAE16D00F50800AD8
:10221000970FD8B009D0000E016E000E026E000EAE
:10222000036E000E046E1200D8900D320C320B3289
:102230000A320F3EF9D715D0170E0F640FD0000EDB
:10224000016E000E026E000E036E000E046E120090
:10225000D8900A360B360C360D360F060F50D8A420
:10226000F7D70AC001F00BC002F00CC003F00DC09C
:1022700004F01200033404340C6E0C50D8A409D0BE
:10228000000E016E000E026E000E036E000E046E54
:102290001200063407340B6E0B50D8A409D0000E80
:1022A000016E000E026E000E036E000E046E120030
:1022B000038EFF0E0116FF0E0216FF0E0316000E10
:1022C0000416068EFF0E0416FF0E0516FF0E0616E8
:1022D000000E0716000E076E000E086E000E096E47
:1022E000000E0A6E7F0E0C5E0B50A00F0C5E200ECF
:1022F0000B6ED8900736083609360A360450015C52
:10230000055002580650035807500458D8A009D069
:102310000450015E0550025A0650035A0750045AF1
:102320000780D89001360236033604360B2EE1D7EB
:102330000CAE16D00C50800A9F0FD8B009D0000EFA
:10234000016E000E026E000E036E000E046E12008F
:10235000D8900A320932083207320C3EF9D715D02C
:102360001F0E0C640FD0000E016E000E026E000EE8
:10237000036E000E046E1200D89007360836093638
:102380000A360C060C50D8A4F7D707C001F008C0D5
:1023900002F009C003F00AC004F0120017C01BF0DD
:1023A0001C6A1D6A16341B3601E31C801B501E6E0E
:1023B0001E50D8A407D0000E156E000E166E000E2B
:1023C000176E12001AC01BF01C6A1D6A19341B36E6
:1023D00001E31C801B50236E2350D8A407D0000EAD
:1023E000156E000E166E000E176E120023507B0F36
:1023F0001E2617C023F01A50231A800E2316168E9D
:10240000198EFF0E1816FF0E1916000E1A16000E62
:102410001F6E000E206E000E216E070E226E15A09C
:1024200006D018501F26195020221A502122D89069
:10243000173216321532D890183619361A36222E1F
:10244000EED7090E226E15A006D018501F2619507F
:1024500020221A502122D890173216321532D890E5
:10246000213220321F32222EEED71FC001F020C0B1
:1024700002F021C003F01EC004F023C005F0F8EC08
:1024800013F001C015F002C016F003C017F01200DF
:102490002DC02FF0306A316A2C342F3601E33080A2
:1024A0002F50396E3950D8A409D0000E2B6E000E73
:1024B0002C6E000E2D6E000E2E6E1200170E2F6E5B
:1024C0002BC030F02CC031F02DC032F02F28336EED
:1024D00004D0D890323231323032332EFAD73050E5
:1024E000346E2C8EFF0E2B16FF0E2C16000E2D16A2
:1024F0002B50356E2C50366E2D50376E386A8E0E3E
:10250000395E39AE16D03950800A8F0FD8B009D055
:10251000000E2B6E000E2C6E000E2D6E000E2E6E19
:102520001200D8903832373236323532393EF9D748
:1025300015D0170E39640FD0000E2B6E000E2C6EC6
:10254000000E2D6E000E2E6E1200D89035363636E7
:102550003736383639063950D8A4F7D73450D8B47E
:1025600008D0381E371E361E356C000E3622372234
:10257000382235C02BF036C02CF037C02DF038C0D3
:102580002EF0120026C02AF02B6A2C6A25342A3637
:1025900001E32B802A50316E3150D8A407D0000EB1
:1025A000246E000E256E000E266E120029C02AF041
:1025B0002B6A2C6A28342A3601E32B802A50326E8B
:1025C0003250D8A407D0000E246E000E256E000EE7
:1025D000266E1200000E2E6E000E2F6E000E306E54
:1025E0003250890F315E26C032F02950321A800EE7
:1025F0003216258EFF0E2416FF0E2516000E261607
:10260000288EFF0E2716FF0E2816000E2916180E0C
:102610002D6ED8902E362F3630362750245C285019
:10262000255829502658D8A007D02750245E285076
:10263000255A2950265A2E80D890243625362636FB
:102640002D2EE7D72EC001F02FC002F030C003F0CE
:1026500031C004F032C005F0F8EC13F001C024F0F2
:1026600002C025F003C026F012003E6E3E04D8A43E
:1026700032D03E50DCEC16F001C03CF002C03DF020
:102680003CC00FF03DC010F0000E126E960E116EA1
:1026900072EC17F00FC015F010C016F015EC17F023
:1026A00015C024F016C025F017C026F0C00E276E06
:1026B0007F0E286E440E296EC2EC12F024C036F054
:1026C00025C037F026C038F036C039F037C03AF0B0
:1026D00038C03BF02BD03E50DCEC16F001C03CF093
:1026E00002C03DF03CC00FF03DC010F0000E126E75
:1026F000050E116E72EC17F00FC015F010C016F039
:1027000015EC17F015C024F016C025F017C026F000
:10271000C00E276E7F0E286E440E296EC2EC12F09A
:1027200024C039F025C03AF026C03BF039C033F060
:102730003AC034F03BC035F01200010E35EC13F016
:1027400033C069F034C06AF035C06BF0000E186E0B
:10275000C80E196E420E1A6E69C015F06AC016F0E6
:102760006BC017F0CEEC11F015C024F016C025F0A8
:1027700017C026F0000E276EA00E286E400E296EA0
:10278000C2EC12F024C066F025C067F026C068F0E5
:10279000800E406E000E416EC50E426E100E436EEE
:1027A00066C044F067C045F068C046F067EC08F0CA
:1027B000000E35EC13F033C069F034C06AF035C058
:1027C0006BF0800E406E000E416EBA0E426E100E1F
:1027D000436E69C044F06AC045F06BC046F067ECD8
:1027E00008F0800E0F6E000E106EE4EC15F0120073
:1027F0000450D8B405D0015002100310D8A40CD056
:10280000000E016E000E026E000E036E1200042A0E
:10281000D890033202320132000E0114066E000E0F
:102820000214076EFE0E0314086E065007100810FF
:10283000D8B40CD0ECD7042A010E0126000E0222D7
:10284000000E0322D890033202320132000E01142E
:10285000066E000E0214076EFF0E0314086E06507B
:1028600007100810D8B406D0E6D70406D890013671
:102870000236033602BE03D0020E0460F6D704A06F
:10288000029ED8900432045003120550D8A4038E3F
:1028900001C001F002C002F003C003F0120003AE59
:1028A00016D001C007F002C008F003C009F0071EEF
:1028B000081E091E072A000E08220922000E0724FE
:1028C000016E000E0820026E800E0920036E06AE17
:1028D00016D004C007F005C008F006C009F0071EB6
:1028E000081E091E072A000E08220922000E0724CE
:1028F000046E000E0820056E800E0920066E000E84
:10290000011A000E021A800E031A000E041A000E9D
:10291000051A800E061A0450015C05500258065034
:102920000358D8B002D0D8901200D8801200000E00
:102930000C6E0AAE06D0096C0A1ED8B00A2A010E27
:102940000C6E08AE06D0076C081ED8B0082A010E1F
:102950000C1A000E0E6E000E0D6E09500A10D8B43F
:102960001CD0010E0B6E04D0D89009360A360B2A03
:102970000AAEFAD7D8900D360E360950075C0A50C9
:102980000858D8A005D00950075E0A50085A0D8093
:10299000D8900A3209320B2EEDD70C50D8B404D09F
:1029A0000D6C0E1ED8B00E2A0DC007F00EC008F038
:1029B0001200000E096E000E0A6E000E0B6E000E65
:1029C0000C6E0550061007100810D8B42AD0010E5E
:1029D0000D6E06D0D89005360636073608360D2A15
:1029E00008AEF8D7D89009360A360B360C360550A3
:1029F000015C065002580750035808500458D8A0EC
:102A000009D00550015E0650025A0750035A08507B
:102A1000045A0980D89008320732063205320D2E4A
:102A2000E1D709C001F00AC002F00BC003F00CC0EE
:102A300004F01200000E066E02AE06D0016C021EFB
:102A4000D8B0022A010E066E04AE04D0036C041E38
:102A5000D8B0042A03500410D8B418D0010E056E63
:102A600004D0D89003360436052A04AEFAD70350B2
:102A7000015C04500258D8A004D00350015E0450F9
:102A8000025AD89004320332052EF1D70650D8B43A
:102A900004D0016C021ED8B0022A01C001F002C0AD
:102AA00002F012000550061007100810D8B424D008
:102AB000010E096E06D0D890053606360736083660
:102AC000092A08AEF8D70550015C06500258075095
:102AD000035808500458D8A008D00550015E06508D
:102AE000025A0750035A0850045AD8900832073245
:102AF00006320532092EE7D701C001F002C002F00C
:102B000003C003F004C004F0120083928396000E09
:102B1000026E190E016E85EC17F0010E0B6E030E9E
:102B20000B6401D00BD0030ECEEC17F0000E026E3A
:102B3000060E016E85EC17F00B2AF1D7020ECEECD3
:102B400017F0000E0B6E030E0B6401D012000B5039
:102B5000010D6C0EF324D96E000EF420DA6EDF50F6
:102B6000096E000E3AEC16F00B2AEDD78E0E116EA0
:102B700006D0D8900C320B320A320932112A000EDC
:102B800009140D6E000E0A140E6E000E0B140F6E5B
:102B9000FF0E0C14106E0D500E100F101010D8A454
:102BA000E8D709C001F00AC002F00BC003F011C061
:102BB00004F0000E056EF8EC13F001C009F002C03D
:102BC0000AF003C00BF0120015D00FC0F6FF10C0C2
:102BD000F7FF000EF86E0F0EF76403D00800F550F3
:102BE00005D0F6CFE9FFF7CFEAFFEF500FEC16F074
:102BF0000F4A102A0FC0F6FF10C0F7FF000EF86E44
:102C00000F0EF76403D00800F55005D0F6CFE9FFAA
:102C1000F7CFEAFFEF500009D8B41200D6D70E6EF6
:102C20001ED0010E096E000E3AEC16F0000E026E78
:102C3000020E016E85EC17F01200020E0B6E010EF3
:102C40005EEC16F01200100E096E000E3AEC16F053
:102C500012000EC009F0010E3AEC16F012000E50F0
:102C6000080AD8B4F0D7020AD8B4E7D7060AD8B40D
:102C7000D8D7EFD70A6E0AB002D0839201D08382F0
:102C8000010E31EC17F0010E31EC17F08396093884
:102C90000F0BCEEC17F009500F0BCEEC17F00A50CB
:102CA000D8B405D0320E0400E82EFDD71200000E75
:102CB000026E020E016E85EC17F012000C6E09D048
:102CC000800E05D0C00E03D0900E01D0D00E0D6E38
:102CD0000DD00B50010AD8B4F3D7030AD8B4F2D7F9
:102CE000010AD8B4F1D7070AD8B4F0D70C040D26DE
:102CF0000D508009096E000E3AEC16F012003D509E
:102D00003E103F10D8B406D0000E3D1A000E3E1AF9
:102D1000800E3F1A3AC02EF03BC02FF03CC030F07E
:102D20003DC031F03EC032F03FC033F0CBEC0FF08D
:102D30002EC03AF02FC03BF030C03CF01200EEEC59
:102D400017F00009D8B4120008EC18F0726E020EE9
:102D50000B6E70505EEC16F072500FEC16F0704A6D
:102D6000712A100E70187110D8A41200000E716E26
:102D7000010E706E0C0E0FEC16F012000C0E0FEC24
:102D800016F0010E0B6E010E5EEC16F0770E0F6E54
:102D9000100E106EE4EC15F04E0E026E200E016E59
:102DA00085EC17F0990E026E100E036E5DEC17F0B5
:102DB0000C0E0FEC16F01200076E07C003F003466E
:102DC0000346C2500318C30B0318C26EC282C2B2BC
:102DD000FED7C350C4CF03F0046A03C004F0036AF3
:102DE0000310056E0450066E05C001F006C002F027
:102DF0001200180EF66E300EF76E000EF86E00EE32
:102E00006CF010EE06F00900F5CFEEFFE550E15052
:102E1000FAE100EE80F0640EEE6AE806FDE1726A07
:102E2000000EF86E000198EF17F0000E186E16AE47
:102E300006D0156C161ED8B0162A010E186E15C0D5
:102E400001F016C002F0036A8E0E046E18C005F081
:102E5000F8EC13F001C015F002C016F003C017F033
:102E60001200046E000E066E000E056E03D0040004
:102E7000054A062A0450016E026A0550015C0250A0
:102E8000800A036E0650800A0358D8A01200EFD7BC
:102E90000C0EC16E000E8D6E8DCF8CFF8CCF8BFF14
:102EA0008BCF8AFF8ACF89FF92689368000E966E57
:102EB00096CF95FF800E946E12000AD002C0F6FFE6
:102EC00003C0F7FF0800F550FAEC17F0024A032A96
:102ED00002C0F6FF03C0F7FF0800F5500009D8B4A0
:102EE0001200ECD70F501102F3CF13F0F4CF14F00F
:102EF0000F501202F350142610501102F3501426F2
:102F000013C00FF014C010F01200000E046E000E7B
:102F1000036E07D0C80E04000400E82EFCD7034A55
:102F2000042A0150035C02500458D8B01200F2D7B2
:102F3000000EF26E48EC17F0AAEC17F085EC15F0D5
:102F400002EC18F0BEEC16F004009DEC13F09FECC0
:102F500016F0FAD7B886000EAC6E670EAF6E000E94
:102F6000B06EAC84AC8A000EAB6EAB88AB8EAECFCD
:102F700001F0AECF01F01200015002100310D8B4DE
:102F800006D0000E011A000E021A800E031A01C0AC
:102F900001F002C002F003C003F01200086E08C086
:102FA00007F0073A835007180F0B0718836E010EBE
:102FB00031EC17F08386040000F083961200036E54
:102FC000000E026E3A0E036005D02F0E036402D08D
:102FD000010E026E02C001F001301200ABB402D04B
:102FE000ABA202D0AB98AB889EAA02D0010E120011
:102FF000000E1200016E01D00400ACA2FDD701C08A
:10300000ADFF1200000EC26EC280890EC06E1200AB
:0E301000AECF01F001501200280C01060100A5
:020000040020DA
:08000000FFFFFFFFFFFFFFFF00
:020000040030CA
:0E000000FF011F1FFF8385FF0FC00FE00F40A1
:00000001FF
